{
  "contractName": "Allowlist",
  "abi": [
    {
      "constant": false,
      "inputs": [
        {
          "internalType": "string",
          "name": "_uuid",
          "type": "string"
        }
      ],
      "name": "_createAllowlister",
      "outputs": [],
      "payable": false,
      "stateMutability": "nonpayable",
      "type": "function"
    }
  ],
  "bytecode": "0x608060405234801561001057600080fd5b5061026d806100206000396000f3fe608060405234801561001057600080fd5b506004361061002b5760003560e01c80630caa58e014610030575b600080fd5b6100e96004803603602081101561004657600080fd5b810190808035906020019064010000000081111561006357600080fd5b82018360208201111561007557600080fd5b8035906020019184600183028401116401000000008311171561009757600080fd5b91908080601f016020809104026020016040519081016040528093929190818152602001838380828437600081840152601f19601f8201169050808301925050505050505091929192905050506100eb565b005b60016000604051806060016040528084815260200184815260200184815250908060018154018082558091505090600182039060005260206000209060030201600090919290919091506000820151816000019080519060200190610151929190610193565b50602082015181600101908051906020019061016e929190610193565b50604082015181600201908051906020019061018b929190610193565b505050505050565b828054600181600116156101000203166002900490600052602060002090601f016020900481019282601f106101d457805160ff1916838001178555610202565b82800160010185558215610202579182015b828111156102015782518255916020019190600101906101e6565b5b50905061020f9190610213565b5090565b61023591905b80821115610231576000816000905550600101610219565b5090565b9056fea265627a7a72315820201d1e2291fa20452b564c28a93fc7e723dac5eae3beb157250b08098cb26e1664736f6c63430005100032",
  "source": "// SPDX-License-Identifier: MIT\npragma solidity ^0.5.0;\n\ncontract Allowlist {\n    // all are going to be set to uuid value in smart contract, so declare as same type\n    struct allowlister {\n        string f_name;\n        string l_name;\n        string wallet_address;\n    }\n\n    allowlister[] allowlisters; // array of all allowlisters\n\n    function _createAllowlister(string memory _uuid) public {\n        allowlisters.push(\n            allowlister({f_name: _uuid, l_name: _uuid, wallet_address: _uuid})\n        ) - 1;\n    }\n}\n",
  "sourcePath": "/Users/badalkhatri/Desktop/Badal/Github/polygon-fauna-app/contracts/Allowlist.sol",
  "compiler": {
    "name": "solc",
    "version": "0.5.16+commit.9c3226ce.Emscripten.clang"
  },
  "schemaVersion": "3.4.7",
  "updatedAt": "2022-06-27T09:27:08.094Z",
  "networkType": "ethereum",
  "devdoc": {
    "methods": {}
  },
  "userdoc": {
    "methods": {}
  }
}